{"abi":[{"type":"function","name":"verifyProof","inputs":[{"name":"_pA","type":"uint256[2]","internalType":"uint256[2]"},{"name":"_pB","type":"uint256[2][2]","internalType":"uint256[2][2]"},{"name":"_pC","type":"uint256[2]","internalType":"uint256[2]"},{"name":"_pubSignals","type":"uint256[5]","internalType":"uint256[5]"}],"outputs":[{"name":"","type":"bool","internalType":"bool"}],"stateMutability":"view"}],"bytecode":{"object":"0x6080604052348015600f57600080fd5b506106e08061001f6000396000f3fe608060405234801561001057600080fd5b506004361061002b5760003560e01c806334baeab914610030575b600080fd5b61004361003e366004610643565b610057565b604051901515815260200160405180910390f35b60006105ba565b7f30644e72e131a029b85045b68181585d2833e84879b9709143e1f593f0000001811061008f576000805260206000f35b50565b600060405183815284602082015285604082015260408160608360076107d05a03fa9150816100c5576000805260206000f35b825160408201526020830151606082015260408360808360066107d05a03fa915050806100f6576000805260206000f35b5050505050565b7f0b20e82928e65b4c8d4044ce69008e714f4980b86b8d54e78b1e32e20ee9ec0c85527f30527629e0fc629d6f54625a556e0e530dda9b2f570e3515e24594dba911fb6c60208601526000608086018661019a87357f07ed8a09b46090c932104d00826d22c98b51dd4d48ef6e15666084f2568bbe587f17527b6a264e389f8f7fa4abab32f6052b28a583fcdb206b07dc75c853ebd4f784610092565b6101ea60208801357f29d042eaa1c277ca78bccfd8ce3cabdb57c27482e46c7b8a0a42b6a9f062643e7f0b73aebf810784a366cf194c95908ec1e27a23a3387e70042e6845aa47b6a84a84610092565b61023a60408801357f1844c7379e31d82dd4e1b3a4fdcaf9efdc67d26242a74438dc90f8f0d57bef837f20806e529d35bd106ca643a67897f25885d170214f8a95812383e62cfff7e09f84610092565b61028a60608801357f232d12af0fd16a148f76a8f272d459a941ff71b2487f80a2fcda4c91f06805ea7f2b5c0eaeb8371b922cf4c88846301209bebab82754a201575d28d750daefa2e484610092565b6102da60808801357f2be7578c5a6509c00b9ca5bf4238c9a7dc67d3ff7148b4a1b11e1ac6d38bd6407f141c431cba18b1bc26a0cdb9235850b42b48441700c505fd0983b6a10ffee07284610092565b50823581527f30644e72e131a029b85045b68181585d97816a916871ca8d3c208c16d87cfd4760208401357f30644e72e131a029b85045b68181585d97816a916871ca8d3c208c16d87cfd4703066020820152833560408201526020840135606082015260408401356080820152606084013560a08201527f2d4d9aa7e302d9df41749d5507949d05dbea33fbb16c643b22f599a2be6df2e260c08201527f14bedd503c37ceb061d8ec60209fe345ce89830a19230301f076caff004d192660e08201527f0967032fcbf776d1afc985f88877f182d38480a653f2decaa9794cbc3bf3060c6101008201527f0e187847ad4c798374d0d6732bf501847dd68bc0e071241e0213bc7fc13db7ab6101208201527f304cfbd1e08a704a99f5e847d93f8c3caafddec46b7a0d379da69a4d112346a76101408201527f1739c1b1a457a8c7313123d24d2f9192f896b7c63eea05a9d57f06547ad0cec8610160820152600087015161018082015260206000018701516101a08201527f198e9393920d483a7260bfb731fb5d25f1aa493335a9e71297e485b7aef312c26101c08201527f1800deef121f1e76426a00665e5c4479674322d4f75edadd46debd5cd992f6ed6101e08201527f090689d0585ff075ec9e99ad690c3395bc4b313370b38ef355acdadcd122975b6102008201527f12c85ea5db8c6deb4aab71808dcb408fe3d1e7690c43d37b4ce6cc0166fa7daa610220820152843561024082015260208501356102608201527f041b8d584048d345cb6e30ca7b905048411594292a3ccc9e1c3ced84106b7f406102808201527f2984611aea46923073b9d522bb555ae9a8dd65c79a8b81ab5a50eae66db74a4c6102a08201527f2f0e787d7ef4c3018997afb32202349448ccacb8e5456d42994d7017b34542736102c08201527f104722959c0c9104b7c63a7ed486309ef49c05f794921f071bf85e5f365db7c16102e08201526020816103008360086107d05a03fa9051169695505050505050565b60405161038081016040526105d2600084013561005e565b6105df602084013561005e565b6105ec604084013561005e565b6105f9606084013561005e565b610606608084013561005e565b61061360a084013561005e565b610620818486888a6100fd565b90508060005260206000f35b806040810183101561063d57600080fd5b92915050565b6000806000806101a0858703121561065a57600080fd5b610664868661062c565b935060c085018681111561067757600080fd5b604086019350610687878261062c565b925050856101a08601111561069b57600080fd5b5091949093509091610100019056fea264697066735822122041b96ba1aa8d1ec7e24d31dda2d54aa83bea13ed234305c50d70a51395de277564736f6c634300081a0033","linkReferences":{}},"methodIdentifiers":{"verifyProof(uint256[2],uint256[2][2],uint256[2],uint256[5])":"34baeab9"},"id":1}