{"abi":[{"type":"constructor","inputs":[{"name":"_ownersHash","type":"uint256[]","internalType":"uint256[]"},{"name":"_numConfirmationsRequired","type":"uint256","internalType":"uint256"}],"stateMutability":"nonpayable"},{"type":"receive","stateMutability":"payable"},{"type":"function","name":"confirmTransaction","inputs":[{"name":"_txIndex","type":"uint256","internalType":"uint256"},{"name":"_pA","type":"uint256[2]","internalType":"uint256[2]"},{"name":"_pB","type":"uint256[2][2]","internalType":"uint256[2][2]"},{"name":"_pC","type":"uint256[2]","internalType":"uint256[2]"},{"name":"_pubSignals","type":"uint256[5]","internalType":"uint256[5]"}],"outputs":[],"stateMutability":"nonpayable"},{"type":"function","name":"executeTransaction","inputs":[{"name":"_txIndex","type":"uint256","internalType":"uint256"}],"outputs":[],"stateMutability":"nonpayable"},{"type":"function","name":"getOwnersHash","inputs":[],"outputs":[{"name":"","type":"uint256[]","internalType":"uint256[]"}],"stateMutability":"view"},{"type":"function","name":"getTransaction","inputs":[{"name":"_txIndex","type":"uint256","internalType":"uint256"}],"outputs":[{"name":"to","type":"address","internalType":"address"},{"name":"value","type":"uint256","internalType":"uint256"},{"name":"data","type":"bytes","internalType":"bytes"},{"name":"executed","type":"bool","internalType":"bool"},{"name":"numConfirmations","type":"uint256","internalType":"uint256"}],"stateMutability":"view"},{"type":"function","name":"getTransactionCount","inputs":[],"outputs":[{"name":"","type":"uint256","internalType":"uint256"}],"stateMutability":"view"},{"type":"function","name":"isAttested","inputs":[{"name":"","type":"uint256","internalType":"uint256"}],"outputs":[{"name":"","type":"bool","internalType":"bool"}],"stateMutability":"view"},{"type":"function","name":"isConfirmed","inputs":[{"name":"","type":"uint256","internalType":"uint256"},{"name":"","type":"address","internalType":"address"}],"outputs":[{"name":"","type":"bool","internalType":"bool"}],"stateMutability":"view"},{"type":"function","name":"isOwnerHash","inputs":[{"name":"","type":"uint256","internalType":"uint256"}],"outputs":[{"name":"","type":"bool","internalType":"bool"}],"stateMutability":"view"},{"type":"function","name":"numConfirmationsRequired","inputs":[],"outputs":[{"name":"","type":"uint256","internalType":"uint256"}],"stateMutability":"view"},{"type":"function","name":"ownersHash","inputs":[{"name":"","type":"uint256","internalType":"uint256"}],"outputs":[{"name":"","type":"uint256","internalType":"uint256"}],"stateMutability":"view"},{"type":"function","name":"revokeConfirmation","inputs":[{"name":"_txIndex","type":"uint256","internalType":"uint256"},{"name":"_pA","type":"uint256[2]","internalType":"uint256[2]"},{"name":"_pB","type":"uint256[2][2]","internalType":"uint256[2][2]"},{"name":"_pC","type":"uint256[2]","internalType":"uint256[2]"},{"name":"_pubSignals","type":"uint256[5]","internalType":"uint256[5]"}],"outputs":[],"stateMutability":"nonpayable"},{"type":"function","name":"submitTransaction","inputs":[{"name":"_to","type":"address","internalType":"address"},{"name":"_value","type":"uint256","internalType":"uint256"},{"name":"_data","type":"bytes","internalType":"bytes"},{"name":"_pA","type":"uint256[2]","internalType":"uint256[2]"},{"name":"_pB","type":"uint256[2][2]","internalType":"uint256[2][2]"},{"name":"_pC","type":"uint256[2]","internalType":"uint256[2]"},{"name":"_pubSignals","type":"uint256[5]","internalType":"uint256[5]"}],"outputs":[],"stateMutability":"nonpayable"},{"type":"function","name":"transactions","inputs":[{"name":"","type":"uint256","internalType":"uint256"}],"outputs":[{"name":"to","type":"address","internalType":"address"},{"name":"value","type":"uint256","internalType":"uint256"},{"name":"data","type":"bytes","internalType":"bytes"},{"name":"executed","type":"bool","internalType":"bool"},{"name":"numConfirmations","type":"uint256","internalType":"uint256"}],"stateMutability":"view"},{"type":"function","name":"verifyProof","inputs":[{"name":"_pA","type":"uint256[2]","internalType":"uint256[2]"},{"name":"_pB","type":"uint256[2][2]","internalType":"uint256[2][2]"},{"name":"_pC","type":"uint256[2]","internalType":"uint256[2]"},{"name":"_pubSignals","type":"uint256[5]","internalType":"uint256[5]"}],"outputs":[{"name":"","type":"bool","internalType":"bool"}],"stateMutability":"view"},{"type":"event","name":"ConfirmTransaction","inputs":[{"name":"owner","type":"address","indexed":true,"internalType":"address"},{"name":"txIndex","type":"uint256","indexed":true,"internalType":"uint256"}],"anonymous":false},{"type":"event","name":"Deposit","inputs":[{"name":"sender","type":"address","indexed":true,"internalType":"address"},{"name":"amount","type":"uint256","indexed":false,"internalType":"uint256"},{"name":"balance","type":"uint256","indexed":false,"internalType":"uint256"}],"anonymous":false},{"type":"event","name":"ExecuteTransaction","inputs":[{"name":"owner","type":"address","indexed":true,"internalType":"address"},{"name":"txIndex","type":"uint256","indexed":true,"internalType":"uint256"}],"anonymous":false},{"type":"event","name":"RevokeConfirmation","inputs":[{"name":"owner","type":"address","indexed":true,"internalType":"address"},{"name":"txIndex","type":"uint256","indexed":true,"internalType":"uint256"}],"anonymous":false},{"type":"event","name":"SubmitTransaction","inputs":[{"name":"owner","type":"address","indexed":true,"internalType":"address"},{"name":"txIndex","type":"uint256","indexed":true,"internalType":"uint256"},{"name":"to","type":"address","indexed":true,"internalType":"address"},{"name":"value","type":"uint256","indexed":false,"internalType":"uint256"},{"name":"data","type":"bytes","indexed":false,"internalType":"bytes"}],"anonymous":false}],"bytecode":{"object":"0x608060405234801561001057600080fd5b50604051611da6380380611da683398101604081905261002f916101d9565b60008251116100775760405162461bcd60e51b815260206004820152600f60248201526e1bdddb995c9cc81c995c5d5a5c9959608a1b60448201526064015b60405180910390fd5b600081118015610088575081518111155b6100e55760405162461bcd60e51b815260206004820152602860248201527f696e76616c6964206e756d626572206f6620726571756972656420636f6e6669604482015267726d6174696f6e7360c01b606482015260840161006e565b60005b82518110156101b9576000838281518110610105576101056102af565b6020908102919091018101516000818152600190925260409091205490915060ff16156101675760405162461bcd60e51b815260206004820152601060248201526f6f776e6572206e6f7420756e6971756560801b604482015260640161006e565b60008181526001602081905260408220805460ff191682179055815480820183559180527f290decd9548b62a8d60345a988386fc84ba6bc95484008f6362f93160ef3e56390910191909155016100e8565b50600355506102c5565b634e487b7160e01b600052604160045260246000fd5b600080604083850312156101ec57600080fd5b82516001600160401b0381111561020257600080fd5b8301601f8101851361021357600080fd5b80516001600160401b0381111561022c5761022c6101c3565b604051600582901b90603f8201601f191681016001600160401b038111828210171561025a5761025a6101c3565b60405291825260208184018101929081018884111561027857600080fd5b6020850194505b8385101561029b5784518082526020958601959093500161027f565b506020969096015195979596505050505050565b634e487b7160e01b600052603260045260246000fd5b611ad2806102d46000396000f3fe6080604052600436106100e15760003560e01c806380f59a651161007f578063d0549b8511610059578063d0549b85146102bf578063e4a1a614146102d5578063ee22610b14610305578063f11431df1461032557600080fd5b806380f59a65146102445780639ace38c21461027f578063b9d44d741461029f57600080fd5b806334baeab9116100bb57806334baeab9146101a0578063353d2001146101d057806356bf57f8146101f25780637ca4e3d61461021457600080fd5b80631368ede8146101275780632e7700f01461015a57806333ea3dc81461016f57600080fd5b36610122576040805134815247602082015233917f90890809c654f11d6e72a28fa60149770a0d11ec6c92319d6ceb2bb0a4ea1a15910160405180910390a2005b600080fd5b34801561013357600080fd5b506101476101423660046113f2565b610345565b6040519081526020015b60405180910390f35b34801561016657600080fd5b50600554610147565b34801561017b57600080fd5b5061018f61018a3660046113f2565b610366565b604051610151959493929190611451565b3480156101ac57600080fd5b506101c06101bb3660046114c5565b610461565b6040519015158152602001610151565b3480156101dc57600080fd5b506101f06101eb36600461151f565b610a36565b005b3480156101fe57600080fd5b50610207610bfb565b6040516101519190611583565b34801561022057600080fd5b506101c061022f3660046113f2565b60026020526000908152604090205460ff1681565b34801561025057600080fd5b506101c061025f3660046115e2565b600460209081526000928352604080842090915290825290205460ff1681565b34801561028b57600080fd5b5061018f61029a3660046113f2565b610c53565b3480156102ab57600080fd5b506101f06102ba366004611624565b610d2c565b3480156102cb57600080fd5b5061014760035481565b3480156102e157600080fd5b506101c06102f03660046113f2565b60016020526000908152604090205460ff1681565b34801561031157600080fd5b506101f06103203660046113f2565b610ec1565b34801561033157600080fd5b506101f061034036600461151f565b611085565b6000818154811061035557600080fd5b600091825260209091200154905081565b600080606060008060006005878154811061038357610383611741565b6000918252602090912060059091020180546001820154600383015460048401546002850180549596506001600160a01b039094169492939260ff9092169183906103cd90611757565b80601f01602080910402602001604051908101604052809291908181526020018280546103f990611757565b80156104465780601f1061041b57610100808354040283529160200191610446565b820191906000526020600020905b81548152906001019060200180831161042957829003601f168201915b50505050509250955095509550955095505091939590929450565b60006109c4565b7f30644e72e131a029b85045b68181585d2833e84879b9709143e1f593f00000018110610499576000805260206000f35b50565b600060405183815284602082015285604082015260408160608360076107d05a03fa9150816104cf576000805260206000f35b825160408201526020830151606082015260408360808360066107d05a03fa91505080610500576000805260206000f35b5050505050565b7f0b20e82928e65b4c8d4044ce69008e714f4980b86b8d54e78b1e32e20ee9ec0c85527f30527629e0fc629d6f54625a556e0e530dda9b2f570e3515e24594dba911fb6c6020860152600060808601866105a487357f07ed8a09b46090c932104d00826d22c98b51dd4d48ef6e15666084f2568bbe587f17527b6a264e389f8f7fa4abab32f6052b28a583fcdb206b07dc75c853ebd4f78461049c565b6105f460208801357f29d042eaa1c277ca78bccfd8ce3cabdb57c27482e46c7b8a0a42b6a9f062643e7f0b73aebf810784a366cf194c95908ec1e27a23a3387e70042e6845aa47b6a84a8461049c565b61064460408801357f1844c7379e31d82dd4e1b3a4fdcaf9efdc67d26242a74438dc90f8f0d57bef837f20806e529d35bd106ca643a67897f25885d170214f8a95812383e62cfff7e09f8461049c565b61069460608801357f232d12af0fd16a148f76a8f272d459a941ff71b2487f80a2fcda4c91f06805ea7f2b5c0eaeb8371b922cf4c88846301209bebab82754a201575d28d750daefa2e48461049c565b6106e460808801357f2be7578c5a6509c00b9ca5bf4238c9a7dc67d3ff7148b4a1b11e1ac6d38bd6407f141c431cba18b1bc26a0cdb9235850b42b48441700c505fd0983b6a10ffee0728461049c565b50823581527f30644e72e131a029b85045b68181585d97816a916871ca8d3c208c16d87cfd4760208401357f30644e72e131a029b85045b68181585d97816a916871ca8d3c208c16d87cfd4703066020820152833560408201526020840135606082015260408401356080820152606084013560a08201527f2d4d9aa7e302d9df41749d5507949d05dbea33fbb16c643b22f599a2be6df2e260c08201527f14bedd503c37ceb061d8ec60209fe345ce89830a19230301f076caff004d192660e08201527f0967032fcbf776d1afc985f88877f182d38480a653f2decaa9794cbc3bf3060c6101008201527f0e187847ad4c798374d0d6732bf501847dd68bc0e071241e0213bc7fc13db7ab6101208201527f304cfbd1e08a704a99f5e847d93f8c3caafddec46b7a0d379da69a4d112346a76101408201527f1739c1b1a457a8c7313123d24d2f9192f896b7c63eea05a9d57f06547ad0cec8610160820152600087015161018082015260206000018701516101a08201527f198e9393920d483a7260bfb731fb5d25f1aa493335a9e71297e485b7aef312c26101c08201527f1800deef121f1e76426a00665e5c4479674322d4f75edadd46debd5cd992f6ed6101e08201527f090689d0585ff075ec9e99ad690c3395bc4b313370b38ef355acdadcd122975b6102008201527f12c85ea5db8c6deb4aab71808dcb408fe3d1e7690c43d37b4ce6cc0166fa7daa610220820152843561024082015260208501356102608201527f041b8d584048d345cb6e30ca7b905048411594292a3ccc9e1c3ced84106b7f406102808201527f2984611aea46923073b9d522bb555ae9a8dd65c79a8b81ab5a50eae66db74a4c6102a08201527f2f0e787d7ef4c3018997afb32202349448ccacb8e5456d42994d7017b34542736102c08201527f104722959c0c9104b7c63a7ed486309ef49c05f794921f071bf85e5f365db7c16102e08201526020816103008360086107d05a03fa9051169695505050505050565b60405161038081016040526109dc6000840135610468565b6109e96020840135610468565b6109f66040840135610468565b610a036060840135610468565b610a106080840135610468565b610a1d60a0840135610468565b610a2a818486888a610507565b90508060005260206000f35b60055485908110610a625760405162461bcd60e51b8152600401610a5990611791565b60405180910390fd5b8560058181548110610a7657610a76611741565b600091825260209091206003600590920201015460ff1615610aaa5760405162461bcd60e51b8152600401610a59906117bc565b6000878152600460209081526040808320338452909152902054879060ff1615610b0d5760405162461bcd60e51b81526020600482015260146024820152731d1e08185b1c9958591e4818dbdb999a5c9b595960621b6044820152606401610a59565b60058054906000908a838110610b2557610b25611741565b60009182526020808320600590920290910180546001820154604051929550610b61936001600160a01b039092169290916002870191016117e9565b6040516020818303038152906040528051906020012060001c9050610b89818b8b8b8b611235565b6001826004016000828254610b9e91906118a5565b909155505060008b8152600460209081526040808320338085529252808320805460ff19166001179055518d927f5cbe105e36805f7820e291f799d5794ff948af2a5f664e580382defb6339004191a35050505050505050505050565b60606000805480602002602001604051908101604052809291908181526020018280548015610c4957602002820191906000526020600020905b815481526020019060010190808311610c35575b5050505050905090565b60058181548110610c6357600080fd5b60009182526020909120600590910201805460018201546002830180546001600160a01b039093169450909291610c9990611757565b80601f0160208091040260200160405190810160405280929190818152602001828054610cc590611757565b8015610d125780601f10610ce757610100808354040283529160200191610d12565b820191906000526020600020905b815481529060010190602001808311610cf557829003601f168201915b505050506003830154600490930154919260ff1691905085565b600554604051600090610d47908a908a908a906020016118b8565b6040516020818303038152906040528051906020012060001c9050610d6f8187878787611235565b6040805160a0810182526001600160a01b038b81168252602082018b81529282018a815260006060840181905260808401819052600580546001810182559181905284517f036b6384b5eca791c62761152d0c79bb0604c104a5fb6f4eb0703f3154bb3db09290910291820180546001600160a01b0319169190941617835593517f036b6384b5eca791c62761152d0c79bb0604c104a5fb6f4eb0703f3154bb3db185015551919290917f036b6384b5eca791c62761152d0c79bb0604c104a5fb6f4eb0703f3154bb3db290910190610e489082611934565b50606082015160038201805460ff19169115159190911790556080909101516004909101556040516001600160a01b038a1690839033907fd5a05bf70715ad82a09a756320284a1b54c9ff74cd0f8cce6219e79b563fe59d90610eae908d908d906119f3565b60405180910390a4505050505050505050565b60055481908110610ee45760405162461bcd60e51b8152600401610a5990611791565b8160058181548110610ef857610ef8611741565b600091825260209091206003600590920201015460ff1615610f2c5760405162461bcd60e51b8152600401610a59906117bc565b600060058481548110610f4157610f41611741565b9060005260206000209060050201905060035481600401541015610f9b5760405162461bcd60e51b81526020600482015260116024820152700c6c2dcdcdee840caf0cac6eae8ca40e8f607b1b6044820152606401610a59565b60038101805460ff191660019081179091558154908201546040516000926001600160a01b03169190610fd2906002860190611a14565b60006040518083038185875af1925050503d806000811461100f576040519150601f19603f3d011682016040523d82523d6000602084013e611014565b606091505b50509050806110515760405162461bcd60e51b81526020600482015260096024820152681d1e0819985a5b195960ba1b6044820152606401610a59565b604051859033907f5445f318f4f5fcfb66592e68e0cc5822aa15664039bd5f0ffde24c5a8142b1ac90600090a35050505050565b600554859081106110a85760405162461bcd60e51b8152600401610a5990611791565b85600581815481106110bc576110bc611741565b600091825260209091206003600590920201015460ff16156110f05760405162461bcd60e51b8152600401610a59906117bc565b60006005888154811061110557611105611741565b600091825260208083206005805493020180546001820154604051929650939493611143936001600160a01b039092169290916002880191016117e9565b6040516020818303038152906040528051906020012060001c905061116b818a8a8a8a611235565b60008a815260046020908152604080832033845290915290205460ff166111c75760405162461bcd60e51b815260206004820152601060248201526f1d1e081b9bdd0818dbdb999a5c9b595960821b6044820152606401610a59565b60018360040160008282546111dc9190611a89565b909155505060008a8152600460209081526040808320338085529252808320805460ff19169055518c927ff0dca620e2e81f7841d07bcc105e1704fb01475b278a9d4c236e1c62945edd5591a350505050505050505050565b803560009081526002602052604090205460ff16156112965760405162461bcd60e51b815260206004820152601860248201527f4174746573746174696f6e20616c7265616479207573656400000000000000006044820152606401610a59565b602081013585146112e25760405162461bcd60e51b8152602060048201526016602482015275125b9d985b1a59081b595cdcd859d9481cda59db995960521b6044820152606401610a59565b60408082013560009081526001602052205460ff16806113155750606081013560009081526001602052604090205460ff165b806113335750608081013560009081526001602052604090205460ff165b61138a5760405162461bcd60e51b815260206004820152602260248201527f496e76616c69642041646472657373205369676e656420746865206d65737361604482015261676560f01b6064820152608401610a59565b61139684848484610461565b6113d25760405162461bcd60e51b815260206004820152600d60248201526c24b73b30b634b210283937b7b360991b6044820152606401610a59565b356000908152600260205260409020805460ff1916600117905550505050565b60006020828403121561140457600080fd5b5035919050565b6000815180845260005b8181101561143157602081850181015186830182015201611415565b506000602082860101526020601f19601f83011685010191505092915050565b60018060a01b038616815284602082015260a06040820152600061147860a083018661140b565b931515606083015250608001529392505050565b806040810183101561149d57600080fd5b92915050565b806080810183101561149d57600080fd5b8060a0810183101561149d57600080fd5b6000806000806101a085870312156114dc57600080fd5b6114e6868661148c565b93506114f586604087016114a3565b92506115048660c0870161148c565b91506115148661010087016114b4565b905092959194509250565b60008060008060006101c0868803121561153857600080fd5b85359450611549876020880161148c565b935061155887606088016114a3565b92506115678760e0880161148c565b91506115778761012088016114b4565b90509295509295909350565b602080825282518282018190526000918401906040840190835b818110156115bb57835183526020938401939092019160010161159d565b509095945050505050565b80356001600160a01b03811681146115dd57600080fd5b919050565b600080604083850312156115f557600080fd5b82359150611605602084016115c6565b90509250929050565b634e487b7160e01b600052604160045260246000fd5b6000806000806000806000610200888a03121561164057600080fd5b611649886115c6565b965060208801359550604088013567ffffffffffffffff81111561166c57600080fd5b8801601f81018a1361167d57600080fd5b803567ffffffffffffffff8111156116975761169761160e565b604051601f8201601f19908116603f0116810167ffffffffffffffff811182821017156116c6576116c661160e565b6040528181528282016020018c10156116de57600080fd5b816020840160208301376000602083830101528097505050506117048960608a0161148c565b93506117138960a08a016114a3565b9250611723896101208a0161148c565b9150611733896101608a016114b4565b905092959891949750929550565b634e487b7160e01b600052603260045260246000fd5b600181811c9082168061176b57607f821691505b60208210810361178b57634e487b7160e01b600052602260045260246000fd5b50919050565b6020808252601190820152701d1e08191bd95cc81b9bdd08195e1a5cdd607a1b604082015260600190565b6020808252601390820152721d1e08185b1c9958591e48195e1958dd5d1959606a1b604082015260600190565b6001600160a01b038416815260208101839052606060408201528154600090819061181381611757565b8060608601526001821660008114611832576001811461184e57611882565b60ff1983166080870152608082151560051b8701019350611882565b86600052602060002060005b838110156118795781548882016080015260019091019060200161185a565b87016080019450505b5091979650505050505050565b634e487b7160e01b600052601160045260246000fd5b8082018082111561149d5761149d61188f565b60018060a01b03841681528260208201526060604082015260006118df606083018461140b565b95945050505050565b601f82111561192f57806000526020600020601f840160051c8101602085101561190f5750805b601f840160051c820191505b81811015610500576000815560010161191b565b505050565b815167ffffffffffffffff81111561194e5761194e61160e565b6119628161195c8454611757565b846118e8565b6020601f821160018114611996576000831561197e5750848201515b600019600385901b1c1916600184901b178455610500565b600084815260208120601f198516915b828110156119c657878501518255602094850194600190920191016119a6565b50848210156119e45786840151600019600387901b60f8161c191681555b50505050600190811b01905550565b828152604060208201526000611a0c604083018461140b565b949350505050565b6000808354611a2281611757565b600182168015611a395760018114611a4e57611a7e565b60ff1983168652811515820286019350611a7e565b86600052602060002060005b83811015611a7657815488820152600190910190602001611a5a565b505081860193505b509195945050505050565b8181038181111561149d5761149d61188f56fea2646970667358221220403d717b278998cd04f1be3abbab3bc4bfd356283f283e85acfa50ab588ec3d264736f6c634300081a0033","linkReferences":{}},"methodIdentifiers":{"confirmTransaction(uint256,uint256[2],uint256[2][2],uint256[2],uint256[5])":"353d2001","executeTransaction(uint256)":"ee22610b","getOwnersHash()":"56bf57f8","getTransaction(uint256)":"33ea3dc8","getTransactionCount()":"2e7700f0","isAttested(uint256)":"7ca4e3d6","isConfirmed(uint256,address)":"80f59a65","isOwnerHash(uint256)":"e4a1a614","numConfirmationsRequired()":"d0549b85","ownersHash(uint256)":"1368ede8","revokeConfirmation(uint256,uint256[2],uint256[2][2],uint256[2],uint256[5])":"f11431df","submitTransaction(address,uint256,bytes,uint256[2],uint256[2][2],uint256[2],uint256[5])":"b9d44d74","transactions(uint256)":"9ace38c2","verifyProof(uint256[2],uint256[2][2],uint256[2],uint256[5])":"34baeab9"},"id":0}